

<!DOCTYPE html>
<!--[if IE 8]><html class="no-js lt-ie9" lang="en" > <![endif]-->
<!--[if gt IE 8]><!--> <html class="no-js" lang="en" > <!--<![endif]-->
<head>
  <meta charset="utf-8">
  
  <meta name="viewport" content="width=device-width, initial-scale=1.0">
  
  <title>Transaction refunds &mdash; Clove  documentation</title>
  

  
  
  
  

  

  
  
    

  

  <link rel="stylesheet" href="_static/css/theme.css" type="text/css" />
  <link rel="stylesheet" href="_static/pygments.css" type="text/css" />
    <link rel="index" title="Index" href="genindex.html" />
    <link rel="search" title="Search" href="search.html" />
    <link rel="next" title="Tips &amp; Tricks" href="tips-and-tricks.html" />
    <link rel="prev" title="Atomic swap example" href="usage.html" /> 

  
  <script src="_static/js/modernizr.min.js"></script>

</head>

<body class="wy-body-for-nav">

   
  <div class="wy-grid-for-nav">

    
    <nav data-toggle="wy-nav-shift" class="wy-nav-side">
      <div class="wy-side-scroll">
        <div class="wy-side-nav-search">
          

          
            <a href="index.html" class="icon icon-home"> Clove
          

          
          </a>

          
            
            
          

          
<div role="search">
  <form id="rtd-search-form" class="wy-form" action="search.html" method="get">
    <input type="text" name="q" placeholder="Search docs" />
    <input type="hidden" name="check_keywords" value="yes" />
    <input type="hidden" name="area" value="default" />
  </form>
</div>

          
        </div>

        <div class="wy-menu wy-menu-vertical" data-spy="affix" role="navigation" aria-label="main navigation">
          
            
            
              
            
            
              <ul class="current">
<li class="toctree-l1"><a class="reference internal" href="README.html">Clove </a></li>
<li class="toctree-l1"><a class="reference internal" href="usage.html">Atomic swap example</a></li>
<li class="toctree-l1 current"><a class="current reference internal" href="#">Transaction refunds</a><ul>
<li class="toctree-l2"><a class="reference internal" href="#bitcoin-based-networks">Bitcoin based networks</a><ul>
<li class="toctree-l3"><a class="reference internal" href="#get-a-wallet-from-the-newtork-mona">1. Get a wallet from the newtork (MONA)</a></li>
<li class="toctree-l3"><a class="reference internal" href="#create-refund-transaction-mona">2. Create refund transaction (MONA)</a></li>
<li class="toctree-l3"><a class="reference internal" href="#sign-and-publish-refund-transaction-mona">3. Sign and publish refund transaction (MONA)</a></li>
<li class="toctree-l3"><a class="reference internal" href="#voila-alice-should-get-her-monacoins-back">4. Voilà! Alice should get her monacoins back.</a></li>
</ul>
</li>
<li class="toctree-l2"><a class="reference internal" href="#ethereum-based-networks">Ethereum based networks</a><ul>
<li class="toctree-l3"><a class="reference internal" href="#get-a-wallet-from-the-newtork-bbt">1. Get a wallet from the newtork (BBT)</a></li>
<li class="toctree-l3"><a class="reference internal" href="#create-refund-transaction-bbt">2. Create refund transaction (BBT)</a></li>
<li class="toctree-l3"><a class="reference internal" href="#sign-and-publish-refund-transaction-bbt">3. Sign and publish refund transaction (BBT)</a></li>
<li class="toctree-l3"><a class="reference internal" href="#voila-alice-should-get-her-ethereum-testnet-coins-back">4. Voilà! Alice should get her ethereum_testnet coins back.</a></li>
</ul>
</li>
</ul>
</li>
<li class="toctree-l1"><a class="reference internal" href="tips-and-tricks.html">Tips &amp; Tricks</a></li>
<li class="toctree-l1"><a class="reference internal" href="api.html">API</a></li>
</ul>

            
          
        </div>
      </div>
    </nav>

    <section data-toggle="wy-nav-shift" class="wy-nav-content-wrap">

      
      <nav class="wy-nav-top" aria-label="top navigation">
        
          <i data-toggle="wy-nav-top" class="fa fa-bars"></i>
          <a href="index.html">Clove</a>
        
      </nav>


      <div class="wy-nav-content">
        
        <div class="rst-content">
        
          















<div role="navigation" aria-label="breadcrumbs navigation">

  <ul class="wy-breadcrumbs">
    
      <li><a href="index.html">Docs</a> &raquo;</li>
        
      <li>Transaction refunds</li>
    
    
      <li class="wy-breadcrumbs-aside">
        
            
            <a href="_sources/refund.md.txt" rel="nofollow"> View page source</a>
          
        
      </li>
    
  </ul>

  
  <hr/>
</div>
          <div role="main" class="document" itemscope="itemscope" itemtype="http://schema.org/Article">
           <div itemprop="articleBody">
            
  <div class="section" id="transaction-refunds">
<span id="transaction-refunds"></span><h1>Transaction refunds<a class="headerlink" href="#transaction-refunds" title="Permalink to this headline">¶</a></h1>
<p>Atomic swaps work because if any party does not comply with the previously agreed upon terms, the transaction can revert using a refund mechanism.</p>
<p><strong>When you can refund your transaction?</strong></p>
<ul class="simple">
<li><strong>Initial transaction</strong> contract is set to be <strong>valid for 48 hours</strong>.</li>
<li><strong>Participate transaction</strong> contract is set to be <strong>valid for 24 hours</strong>.</li>
</ul>
<div class="section" id="bitcoin-based-networks">
<span id="bitcoin-based-networks"></span><h2>Bitcoin based networks<a class="headerlink" href="#bitcoin-based-networks" title="Permalink to this headline">¶</a></h2>
<p>Alice created and published such transaction:</p>
<div class="highlight-default notranslate"><div class="highlight"><pre><span></span><span class="p">{</span><span class="s1">&#39;contract&#39;</span><span class="p">:</span> <span class="s1">&#39;63a61446260875cb8c88ba918cdd913ae23c59562f95298876a9141a376f6634e41c22b28bc9ef3336a623717083a46704396b645bb17576a9142b6a3314e8fcf1f1fd6b4d70b112bd5a192850576888ac&#39;</span><span class="p">,</span>
<span class="s1">&#39;contract_address&#39;</span><span class="p">:</span> <span class="s1">&#39;3KLY8YnMbcWqkNdSmtgwZVxx6hpU4AWFX6&#39;</span><span class="p">,</span>
<span class="s1">&#39;contract_transaction&#39;</span><span class="p">:</span> <span class="s1">&#39;0100000001e4f0bb83bc3b52f921ad9d064768ba1702d9ec92befa3529a17e5163c90a11a0010000008a47304402202c8e3c6814938dae17c02125990cadd550edee97df9529f889639f4096f55fe4022060cf5b36a0a3b103ae705937a65903710b849296076ce010c61da48e0946b1ad0141044fbe9cf6ef9bf4a13a693ee1d431eb700a592e8097619e0cfe82aff2a5c231e7154e464e4ec94201007b403b6de9a5819b0bc31eef0741c4fe6e932bca6d9cca0000000002001bb7000000000017a914c192be92fa15e5a97cfeae84fb2ac830594ea9fb8780795209000000001976a9142b6a3314e8fcf1f1fd6b4d70b112bd5a1928505788ac00000000&#39;</span><span class="p">,</span>
<span class="s1">&#39;transaction_address&#39;</span><span class="p">:</span> <span class="s1">&#39;1f317ce1ab1c7504d5e70cac4cb97f6e41fbaded4dd1f094d431a9f0a508ab44&#39;</span><span class="p">,</span>
<span class="s1">&#39;fee&#39;</span><span class="p">:</span> <span class="mf">0.001</span><span class="p">,</span>
<span class="s1">&#39;fee_per_kb&#39;</span><span class="p">:</span> <span class="mf">0.0</span><span class="p">,</span>
<span class="s1">&#39;fee_per_kb_text&#39;</span><span class="p">:</span> <span class="s1">&#39;0.00000000 MONA / 1 kB&#39;</span><span class="p">,</span>
<span class="s1">&#39;fee_text&#39;</span><span class="p">:</span> <span class="s1">&#39;0.00100000 MONA&#39;</span><span class="p">,</span>
<span class="s1">&#39;locktime&#39;</span><span class="p">:</span> <span class="n">datetime</span><span class="o">.</span><span class="n">datetime</span><span class="p">(</span><span class="mi">2018</span><span class="p">,</span> <span class="mi">8</span><span class="p">,</span> <span class="mi">3</span><span class="p">,</span> <span class="mi">14</span><span class="p">,</span> <span class="mi">48</span><span class="p">,</span> <span class="mi">25</span><span class="p">,</span> <span class="mi">29266</span><span class="p">),</span>
<span class="s1">&#39;recipient_address&#39;</span><span class="p">:</span> <span class="s1">&#39;MAHnD7u7JD4DPA3R267zcB1xbaaiZrDRmL&#39;</span><span class="p">,</span>
<span class="s1">&#39;refund_address&#39;</span><span class="p">:</span> <span class="s1">&#39;MBriWYyfWNdrAmycN5otoUDWDMrdFK33DQ&#39;</span><span class="p">,</span>
<span class="s1">&#39;secret&#39;</span><span class="p">:</span> <span class="s1">&#39;41029c8c094a3d747f99e3b6960c6df1e5defaa81dfe961be6f3cae9755a6c3d&#39;</span><span class="p">,</span>
<span class="s1">&#39;secret_hash&#39;</span><span class="p">:</span> <span class="s1">&#39;46260875cb8c88ba918cdd913ae23c59562f9529&#39;</span><span class="p">,</span>
<span class="s1">&#39;size&#39;</span><span class="p">:</span> <span class="mi">255</span><span class="p">,</span>
<span class="s1">&#39;size_text&#39;</span><span class="p">:</span> <span class="s1">&#39;255 bytes&#39;</span><span class="p">,</span>
<span class="s1">&#39;value&#39;</span><span class="p">:</span> <span class="mf">0.12</span><span class="p">,</span>
<span class="s1">&#39;value_text&#39;</span><span class="p">:</span> <span class="s1">&#39;0.12000000 MONA&#39;</span><span class="p">}</span>
</pre></div>
</div>
<p>She was waiting for the response from Bob for a day but she did not receive any,
so she decided to refund the money from the blockchain</p>
<div class="section" id="get-a-wallet-from-the-newtork-mona">
<span id="get-a-wallet-from-the-newtork-mona"></span><h3>1. Get a wallet from the newtork (MONA)<a class="headerlink" href="#get-a-wallet-from-the-newtork-mona" title="Permalink to this headline">¶</a></h3>
<div class="highlight-default notranslate"><div class="highlight"><pre><span></span><span class="kn">from</span> <span class="nn">clove.network</span> <span class="k">import</span> <span class="n">Monacoin</span>

<span class="n">mona_network</span> <span class="o">=</span> <span class="n">Monacoin</span><span class="p">()</span>

<span class="n">alice_mona_wallet</span> <span class="o">=</span> <span class="n">mona_network</span><span class="o">.</span><span class="n">get_wallet</span><span class="p">(</span><span class="n">private_key</span><span class="o">=</span><span class="s1">&#39;aliceprivatekey&#39;</span><span class="p">)</span> <span class="c1"># provide real key</span>

<span class="n">alice_mona_wallet</span><span class="o">.</span><span class="n">address</span>
<span class="s1">&#39;MBriWYyfWNdrAmycN5otoUDWDMrdFK33DQ&#39;</span>
</pre></div>
</div>
</div>
<div class="section" id="create-refund-transaction-mona">
<span id="create-refund-transaction-mona"></span><h3>2. Create refund transaction (MONA)<a class="headerlink" href="#create-refund-transaction-mona" title="Permalink to this headline">¶</a></h3>
<div class="highlight-default notranslate"><div class="highlight"><pre><span></span><span class="n">alice_contract</span> <span class="o">=</span> <span class="n">mona_network</span><span class="o">.</span><span class="n">audit_contract</span><span class="p">(</span>
    <span class="n">contract</span><span class="o">=</span><span class="s1">&#39;63a61446260875cb8c88ba918cdd913ae23c59562f95298876a9141a376f6634e41c22b28bc9ef3336a623717083a46704396b645bb17576a9142b6a3314e8fcf1f1fd6b4d70b112bd5a192850576888ac&#39;</span><span class="p">,</span>
    <span class="n">transaction_addresss</span><span class="o">=</span><span class="s1">&#39;1f317ce1ab1c7504d5e70cac4cb97f6e41fbaded4dd1f094d431a9f0a508ab44&#39;</span>
<span class="p">)</span>
<span class="n">alice_contract</span><span class="o">.</span><span class="n">show_details</span><span class="p">()</span>
<span class="p">{</span><span class="s1">&#39;confirmations&#39;</span><span class="p">:</span> <span class="mi">58543</span><span class="p">,</span>
 <span class="s1">&#39;contract_address&#39;</span><span class="p">:</span> <span class="s1">&#39;PSEhMygm6dgee3bmzsLsomaHZvhdZQoLBm&#39;</span><span class="p">,</span>
 <span class="s1">&#39;locktime&#39;</span><span class="p">:</span> <span class="n">datetime</span><span class="o">.</span><span class="n">datetime</span><span class="p">(</span><span class="mi">2018</span><span class="p">,</span> <span class="mi">8</span><span class="p">,</span> <span class="mi">3</span><span class="p">,</span> <span class="mi">14</span><span class="p">,</span> <span class="mi">48</span><span class="p">,</span> <span class="mi">25</span><span class="p">),</span>
 <span class="s1">&#39;recipient_address&#39;</span><span class="p">:</span> <span class="s1">&#39;MAHnD7u7JD4DPA3R267zcB1xbaaiZrDRmL&#39;</span><span class="p">,</span>
 <span class="s1">&#39;refund_address&#39;</span><span class="p">:</span> <span class="s1">&#39;MBriWYyfWNdrAmycN5otoUDWDMrdFK33DQ&#39;</span><span class="p">,</span>
 <span class="s1">&#39;secret_hash&#39;</span><span class="p">:</span> <span class="s1">&#39;46260875cb8c88ba918cdd913ae23c59562f9529&#39;</span><span class="p">,</span>
 <span class="s1">&#39;transaction_address&#39;</span><span class="p">:</span> <span class="s1">&#39;1f317ce1ab1c7504d5e70cac4cb97f6e41fbaded4dd1f094d431a9f0a508ab44&#39;</span><span class="p">,</span>
 <span class="s1">&#39;transaction_link&#39;</span><span class="p">:</span> <span class="s1">&#39;https://insight.electrum-mona.org/insight/tx/1f317ce1ab1c7504d5e70cac4cb97f6e41fbaded4dd1f094d431a9f0a508ab44&#39;</span><span class="p">,</span>
 <span class="s1">&#39;value&#39;</span><span class="p">:</span> <span class="mf">0.12</span><span class="p">,</span>
 <span class="s1">&#39;value_text&#39;</span><span class="p">:</span> <span class="s1">&#39;0.12000000 MONA&#39;</span><span class="p">}</span>
</pre></div>
</div>
<p>Alice refunds the contract.</p>
<div class="highlight-default notranslate"><div class="highlight"><pre><span></span>refund_transaction = alice_contract.refund(alice_mona_wallet)
RuntimeError: This contract is still valid! It can&#39;t be refunded until 2018-08-03 14:48:25 UTC.
</pre></div>
</div>
<p>Oops! Something went wrong! Contract is still valid! Alice was a bit impatient, wasn’t she?</p>
<p>Initial transaction contract is set to be <strong>valid for 48 hours</strong>.</p>
<p>Okey! It is past 2018-08-03 14:48:25 UTC, so Alice is free to create a refund transaction!</p>
<div class="highlight-default notranslate"><div class="highlight"><pre><span></span><span class="n">refund_transaction</span> <span class="o">=</span> <span class="n">alice_contract</span><span class="o">.</span><span class="n">refund</span><span class="p">(</span><span class="n">alice_mona_wallet</span><span class="p">)</span>
</pre></div>
</div>
</div>
<div class="section" id="sign-and-publish-refund-transaction-mona">
<span id="sign-and-publish-refund-transaction-mona"></span><h3>3. Sign and publish refund transaction (MONA)<a class="headerlink" href="#sign-and-publish-refund-transaction-mona" title="Permalink to this headline">¶</a></h3>
<div class="highlight-default notranslate"><div class="highlight"><pre><span></span><span class="n">refund_transaction</span><span class="o">.</span><span class="n">add_fee_and_sign</span><span class="p">()</span>

<span class="n">refund_transaction</span><span class="o">.</span><span class="n">show_details</span><span class="p">()</span>
<span class="p">{</span><span class="s1">&#39;fee&#39;</span><span class="p">:</span> <span class="mf">0.001</span><span class="p">,</span>
<span class="s1">&#39;fee_per_kb&#39;</span><span class="p">:</span> <span class="mf">0.0</span><span class="p">,</span>
<span class="s1">&#39;fee_per_kb_text&#39;</span><span class="p">:</span> <span class="s1">&#39;0.00000000 MONA / 1 kB&#39;</span><span class="p">,</span>
<span class="s1">&#39;fee_text&#39;</span><span class="p">:</span> <span class="s1">&#39;0.00100000 MONA&#39;</span><span class="p">,</span>
<span class="s1">&#39;recipient_address&#39;</span><span class="p">:</span> <span class="s1">&#39;MBriWYyfWNdrAmycN5otoUDWDMrdFK33DQ&#39;</span><span class="p">,</span>
<span class="s1">&#39;size&#39;</span><span class="p">:</span> <span class="mi">308</span><span class="p">,</span>
<span class="s1">&#39;size_text&#39;</span><span class="p">:</span> <span class="s1">&#39;308 bytes&#39;</span><span class="p">,</span>
<span class="s1">&#39;transaction&#39;</span><span class="p">:</span> <span class="s1">&#39;010000000144ab08a5f0a931d494f0d14dedadfb416e7fb94cac0ce7d504751cabe17c311f00000000df483045022100837496713462529685110ac60e600019dff6d3a44c77f817ece5da64ca4dc42e022011b64dd743399c5c2ea7dda941a4a837d1497087e13ff6511a7e2c362c176a300141044fbe9cf6ef9bf4a13a693ee1d431eb700a592e8097619e0cfe82aff2a5c231e7154e464e4ec94201007b403b6de9a5819b0bc31eef0741c4fe6e932bca6d9cca004c5163a61446260875cb8c88ba918cdd913ae23c59562f95298876a9141a376f6634e41c22b28bc9ef3336a623717083a46704396b645bb17576a9142b6a3314e8fcf1f1fd6b4d70b112bd5a192850576888ac00000000016094b500000000001976a9142b6a3314e8fcf1f1fd6b4d70b112bd5a1928505788ac396b645b&#39;</span><span class="p">,</span>
<span class="s1">&#39;transaction_address&#39;</span><span class="p">:</span> <span class="s1">&#39;a5f0b7a955e606a8e54323d73e44abd608f240cb72cbad995845f2ba754a0eee&#39;</span><span class="p">,</span>
<span class="s1">&#39;value&#39;</span><span class="p">:</span> <span class="mf">0.12</span><span class="p">,</span>
<span class="s1">&#39;value_text&#39;</span><span class="p">:</span> <span class="s1">&#39;0.12000000 MONA&#39;</span><span class="p">}</span>


<span class="n">refund_transaction</span><span class="o">.</span><span class="n">publish</span><span class="p">()</span>
<span class="s1">&#39;a5f0b7a955e606a8e54323d73e44abd608f240cb72cbad995845f2ba754a0eee&#39;</span>
</pre></div>
</div>
</div>
<div class="section" id="voila-alice-should-get-her-monacoins-back">
<span id="voila-alice-should-get-her-monacoins-back"></span><h3>4. Voilà! Alice should get her monacoins back.<a class="headerlink" href="#voila-alice-should-get-her-monacoins-back" title="Permalink to this headline">¶</a></h3>
</div>
</div>
<div class="section" id="ethereum-based-networks">
<span id="ethereum-based-networks"></span><h2>Ethereum based networks<a class="headerlink" href="#ethereum-based-networks" title="Permalink to this headline">¶</a></h2>
<p>Alice created and published such transaction:</p>
<div class="highlight-default notranslate"><div class="highlight"><pre><span></span><span class="gp">&gt;&gt;&gt; </span><span class="n">initial_transaction</span><span class="o">.</span><span class="n">show_details</span><span class="p">()</span>
<span class="go">{&#39;nonce&#39;: 249,</span>
<span class="go">&#39;gasprice&#39;: 20000000000,</span>
<span class="go">&#39;to&#39;: &#39;0x7657ca877fac31d20528b473162e39b6e152fd2e&#39;,</span>
<span class="go">&#39;value&#39;: Decimal(&#39;1000&#39;),</span>
<span class="go">&#39;data&#39;: &#39;0x52f50db7000000000000000000000000000000000000000000000000000000005b59efd0f1281d5c4b4b49ac582d5ee5cd43b871309e0b28000000000000000000000000000000000000000000000000d867f293ba129629a9f9355fa285b8d3711a909200000000000000000000000053e546387a0d054e7ff127923254c0a679da6dbf00000000000000000000000000000000000000000000003635c9adc5dea00000&#39;,</span>
<span class="go">&#39;v&#39;: 27,</span>
<span class="go">&#39;r&#39;: 68640564608942029631378553532061187867651305976388122732310692205381648163723,</span>
<span class="go">&#39;s&#39;: 42842279473037306433100096957396035599316452268945287098600421922947059503385,</span>
<span class="go">&#39;sender&#39;: &#39;0x999f348959e611f1e9eab2927c21e88e48e6ef45&#39;, &#39;</span>
<span class="go">transaction_address&#39;: &#39;0x209a08f2faaea4c6871cd4947293fa3fada5835e1f589fa7f0ab875a858104af&#39;,</span>
<span class="go">&#39;gas_limit&#39;: 300000,</span>
<span class="go">&#39;transaction&#39;: &#39;0xf9010b81f98504a817c800830493e0947657ca877fac31d20528b473162e39b6e152fd2e80b8a452f50db7000000000000000000000000000000000000000000000000000000005b59efd0f1281d5c4b4b49ac582d5ee5cd43b871309e0b28000000000000000000000000000000000000000000000000d867f293ba129629a9f9355fa285b8d3711a909200000000000000000000000053e546387a0d054e7ff127923254c0a679da6dbf00000000000000000000000000000000000000000000003635c9adc5dea000001ba097c12ecc5769576b447344c87e687c503390ba2e4003a209a3c4fb322b58a38ba05eb7def14f000a1ee940ffb22417b94e5ad303611e789ff438d70addc8b15119&#39;, &#39;recipient_address&#39;: &#39;0xd867f293Ba129629a9f9355fa285B8D3711a9092&#39;,</span>
<span class="go">&#39;value_text&#39;: &#39;1000.000000000000000000 BBT&#39;,</span>
<span class="go">&#39;secret&#39;: &#39;fb2cc1d75a54c2fd7d120f307442ad1051157b4759fbb92c3656e8bb639cd909&#39;,</span>
<span class="go">&#39;secret_hash&#39;: &#39;f1281d5c4b4b49ac582d5ee5cd43b871309e0b28&#39;,</span>
<span class="go">&#39;locktime&#39;: datetime.datetime(2018, 7, 26, 15, 59, 12, 831884),</span>
<span class="go">&#39;sender_address&#39;: &#39;0x999F348959E611F1E9eab2927c21E88E48e6Ef45&#39;,</span>
<span class="go">&#39;contract_address&#39;: &#39;0x7657Ca877Fac31D20528B473162E39B6E152fd2e&#39;,</span>
<span class="go">&#39;refund_address&#39;: &#39;0x999F348959E611F1E9eab2927c21E88E48e6Ef45&#39;,</span>
<span class="go">&#39;token_address&#39;: &#39;0x53E546387A0d054e7FF127923254c0a679DA6DBf&#39;}</span>
</pre></div>
</div>
<p>She was waiting for the response from Bob for a day but she did not receive any,
so she decided to refund the money from the blockchain:</p>
<div class="section" id="get-a-wallet-from-the-newtork-bbt">
<span id="get-a-wallet-from-the-newtork-bbt"></span><h3>1. Get a wallet from the newtork (BBT)<a class="headerlink" href="#get-a-wallet-from-the-newtork-bbt" title="Permalink to this headline">¶</a></h3>
<div class="highlight-default notranslate"><div class="highlight"><pre><span></span><span class="kn">from</span> <span class="nn">clove.network</span> <span class="k">import</span> <span class="n">EthereumTestnet</span>

<span class="o">&gt;&gt;&gt;</span> <span class="n">alice_eth_testnet_wallet</span> <span class="o">=</span> <span class="n">EthereumTestnet</span><span class="o">.</span><span class="n">get_wallet</span><span class="p">(</span><span class="n">private_key</span><span class="o">=</span><span class="s1">&#39;aliceprivatekey&#39;</span><span class="p">)</span>
<span class="o">&gt;&gt;&gt;</span> <span class="n">alice_eth_testnet_wallet</span><span class="o">.</span><span class="n">address</span>
<span class="s1">&#39;0x999F348959E611F1E9eab2927c21E88E48e6Ef45&#39;</span>
</pre></div>
</div>
</div>
<div class="section" id="create-refund-transaction-bbt">
<span id="create-refund-transaction-bbt"></span><h3>2. Create refund transaction (BBT)<a class="headerlink" href="#create-refund-transaction-bbt" title="Permalink to this headline">¶</a></h3>
<div class="highlight-default notranslate"><div class="highlight"><pre><span></span><span class="gp">&gt;&gt;&gt; </span><span class="kn">from</span> <span class="nn">clove.network</span> <span class="k">import</span> <span class="n">EthereumTestnet</span>

<span class="gp">&gt;&gt;&gt; </span><span class="n">eth_testnet</span> <span class="o">=</span> <span class="n">EthereumTestnet</span><span class="p">()</span>
<span class="gp">&gt;&gt;&gt; </span><span class="n">alice_contract</span> <span class="o">=</span> <span class="n">eth_testnet</span><span class="o">.</span><span class="n">audit_contract</span><span class="p">(</span>
<span class="go">    &#39;0x209a08f2faaea4c6871cd4947293fa3fada5835e1f589fa7f0ab875a858104af&#39; // Put your initial transaction address</span>
<span class="go">)</span>
<span class="gp">&gt;&gt;&gt; </span><span class="n">alice_contract</span><span class="o">.</span><span class="n">show_details</span><span class="p">()</span>
<span class="go">{&#39;contract_address&#39;: &#39;0x7657Ca877Fac31D20528B473162E39B6E152fd2e&#39;,</span>
<span class="go">&#39;locktime&#39;: datetime.datetime(2018, 7, 26, 15, 59, 12),</span>
<span class="go">&#39;recipient_address&#39;: &#39;0xd867f293Ba129629a9f9355fa285B8D3711a9092&#39;,</span>
<span class="go">&#39;refund_address&#39;: &#39;0x999F348959E611F1E9eab2927c21E88E48e6Ef45&#39;,</span>
<span class="go">&#39;secret_hash&#39;: &#39;f1281d5c4b4b49ac582d5ee5cd43b871309e0b28&#39;,</span>
<span class="go">&#39;transaction_address&#39;: &#39;0x209a08f2faaea4c6871cd4947293fa3fada5835e1f589fa7f0ab875a858104af&#39;,</span>
<span class="go">&#39;value&#39;: Decimal(&#39;1000&#39;),</span>
<span class="go">&#39;value_text&#39;: &#39;1000.000000000000000000 BBT&#39;,</span>
<span class="go">&#39;token_address&#39;: &#39;0x53E546387A0d054e7FF127923254c0a679DA6DBf&#39;}</span>

<span class="gp">&gt;&gt;&gt; </span><span class="n">refund</span> <span class="o">=</span> <span class="n">alice_contract</span><span class="o">.</span><span class="n">refund</span><span class="p">()</span>
</pre></div>
</div>
<p>Please remember, that initial transaction contract is set to be <strong>valid for 48 hours</strong>. Before that time, you will not be able to refund your transaction.</p>
</div>
<div class="section" id="sign-and-publish-refund-transaction-bbt">
<span id="sign-and-publish-refund-transaction-bbt"></span><h3>3. Sign and publish refund transaction (BBT)<a class="headerlink" href="#sign-and-publish-refund-transaction-bbt" title="Permalink to this headline">¶</a></h3>
<div class="highlight-default notranslate"><div class="highlight"><pre><span></span><span class="gp">&gt;&gt;&gt; </span><span class="n">refund</span><span class="o">.</span><span class="n">sign</span><span class="p">(</span><span class="s1">&#39;aliceprivatekey&#39;</span><span class="p">)</span>
<span class="gp">&gt;&gt;&gt; </span><span class="n">refund</span><span class="o">.</span><span class="n">publish</span><span class="p">()</span>
<span class="go">&#39;0xbf13af6b32a0af2406fdfb23705742d2d1d097742af9bf3946029e8d1f3feba3&#39;</span>
</pre></div>
</div>
</div>
<div class="section" id="voila-alice-should-get-her-ethereum-testnet-coins-back">
<span id="voila-alice-should-get-her-ethereum-testnet-coins-back"></span><h3>4. Voilà! Alice should get her ethereum_testnet coins back.<a class="headerlink" href="#voila-alice-should-get-her-ethereum-testnet-coins-back" title="Permalink to this headline">¶</a></h3>
<p>You can check it for example <a class="reference external" href="https://kovan.etherscan.io/tx/0xbf13af6b32a0af2406fdfb23705742d2d1d097742af9bf3946029e8d1f3feba3">here</a>.</p>
</div>
</div>
</div>


           </div>
           
          </div>
          <footer>
  
    <div class="rst-footer-buttons" role="navigation" aria-label="footer navigation">
      
        <a href="tips-and-tricks.html" class="btn btn-neutral float-right" title="Tips &amp; Tricks" accesskey="n" rel="next">Next <span class="fa fa-arrow-circle-right"></span></a>
      
      
        <a href="usage.html" class="btn btn-neutral" title="Atomic swap example" accesskey="p" rel="prev"><span class="fa fa-arrow-circle-left"></span> Previous</a>
      
    </div>
  

  <hr/>

  <div role="contentinfo">
    <p>
        &copy; Copyright 2018, Lamden Team.

    </p>
  </div>
  Built with <a href="http://sphinx-doc.org/">Sphinx</a> using a <a href="https://github.com/rtfd/sphinx_rtd_theme">theme</a> provided by <a href="https://readthedocs.org">Read the Docs</a>. 

</footer>

        </div>
      </div>

    </section>

  </div>
  


  

    <script type="text/javascript">
        var DOCUMENTATION_OPTIONS = {
            URL_ROOT:'./',
            VERSION:'',
            LANGUAGE:'None',
            COLLAPSE_INDEX:false,
            FILE_SUFFIX:'.html',
            HAS_SOURCE:  true,
            SOURCELINK_SUFFIX: '.txt'
        };
    </script>
      <script type="text/javascript" src="_static/jquery.js"></script>
      <script type="text/javascript" src="_static/underscore.js"></script>
      <script type="text/javascript" src="_static/doctools.js"></script>

  

  <script type="text/javascript" src="_static/js/theme.js"></script>

  <script type="text/javascript">
      jQuery(function () {
          SphinxRtdTheme.Navigation.enable(false);
      });
  </script> 

</body>
</html>